:020000040000FA
:0400000007EF00F016
:100008005382A7ED0DF021EF11F0000E346E000EB3
:10001800336E95EF00F033C00DF034C00EF0000ED3
:10002800106E070E0F6EA8EC14F0800E0D24D96E1A
:10003800070E0E20DA6E1950DE1807E11A50DE1886
:10004800D8A429EF00F02BEF00F093EF00F033C0B5
:100058000DF034C00EF0000E106E070E0F6EA8ECF7
:1000680014F0850E0D24D96E070E0E20DA6EDE040C
:10007800DE10D8A442EF00F044EF00F093EF00F058
:1000880033C00DF034C00EF0000E106E070E0F6E68
:10009800A8EC14F0850E0D24D96E070E0E20DA6E2A
:1000A800000EDE6E000EDD6E19C021F01AC022F0BF
:1000B800000E286E000E276E460E266E20EE21F0EA
:1000C80000EE0DF0070EDBCFEBFFE806FCE296EC46
:1000D80012F04D4A4E2A0001A04BA12B33C00DF05F
:1000E80034C00EF0000E106E070E0F6EA8EC14F060
:1000F800840E0D24D96E070E0E20DA6EDF50D0EC78
:1001080012F0D8900D360E36EA0E0D24D96E000E78
:100118000E20DA6EDE2A000EDD2299EF03F0334A54
:10012800342A4750335C3450800A1B6E4850800A8A
:100138001B58D8A0A2EF00F0A4EF00F00FEF00F0DA
:100148001F682068000E416E000E406E40C00DF022
:1001580041C00EF0000E106E060E0F6EA8EC14F0E3
:10016800B40E0D24D96E010E0E20DA6E1950DE1869
:1001780007E11A50DE18D8A4C4EF00F0C6EF00F06B
:100188000CEF01F040C00DF041C00EF0000E106EF3
:10019800060E0F6EA8EC14F0B80E0D24D96E010EE1
:1001A8000E20DA6EDECF1FF0DDCF20F0010E4024E6
:1001B8003E6E000E41203F6E410E3D6E40C00DF078
:1001C80041C00EF0000E106E060E0F6EA8EC14F073
:1001D800B40E0D24D96E010E0E20DA6EFF0EDE6EFF
:1001E800FF0EDD6E40C00DF041C00EF0000E106E27
:1001F800060E0F6EA8EC14F0B80E0D24D96E010E81
:100208000E20DA6EFF0EDE6EFF0EDD6E42EF02F09C
:1002180040C00DF041C00EF0000E106E060E0F6EBD
:10022800A8EC14F0780E0D24D96E010E0E20DA6EAB
:100238001950DE1807E11A50DE18D8A426EF01F08D
:1002480028EF01F06EEF01F040C00DF041C00EF054
:10025800000E106E060E0F6EA8EC14F07C0E0D2426
:10026800D96E010E0E20DA6EDECF1FF0DDCF20F042
:10027800010E40243E6E000E41203F6E420E3D6E40
:1002880040C00DF041C00EF0000E106E060E0F6E4D
:10029800A8EC14F0780E0D24D96E010E0E20DA6E3B
:1002A800FF0EDE6EFF0EDD6E40C00DF041C00EF099
:1002B800000E106E060E0F6EA8EC14F07C0E0D24C6
:1002C800D96E010E0E20DA6EFF0EDE6EFF0EDD6EA9
:1002D80042EF02F040C00DF041C00EF0000E106E6B
:1002E800060E0F6EA8EC14F03C0E0D24D96E010E0C
:1002F8000E20DA6E1950DE1807E11A50DE18D8A45D
:1003080088EF01F08AEF01F0D0EF01F040C00DF066
:1003180041C00EF0000E106E060E0F6EA8EC14F021
:10032800400E0D24D96E010E0E20DA6EDECF1FF0BE
:10033800DDCF20F0010E40243E6E000E41203F6EBE
:10034800430E3D6E40C00DF041C00EF0000E106E21
:10035800060E0F6EA8EC14F03C0E0D24D96E010E9B
:100368000E20DA6EFF0EDE6EFF0EDD6E40C00DF061
:1003780041C00EF0000E106E060E0F6EA8EC14F0C1
:10038800400E0D24D96E010E0E20DA6EFF0EDE6EC1
:10039800FF0EDD6E42EF02F040C00DF041C00EF0DE
:1003A800000E106E060E0F6EA8EC14F0000E0D2451
:1003B800D96E010E0E20DA6E1950DE1807E11A50B8
:1003C800DE18D8A4EAEF01F0ECEF01F032EF02F00A
:1003D80040C00DF041C00EF0000E106E060E0F6EFC
:1003E800A8EC14F0040E0D24D96E010E0E20DA6E5E
:1003F800DECF1FF0DDCF20F0010E40243E6E000E50
:1004080041203F6E440E3D6E40C00DF041C00EF0DD
:10041800000E106E060E0F6EA8EC14F0000E0D24E0
:10042800D96E010E0E20DA6EFF0EDE6EFF0EDD6E47
:1004380040C00DF041C00EF0000E106E060E0F6E9B
:10044800A8EC14F0040E0D24D96E010E0E20DA6EFD
:10045800FF0EDE6EFF0EDD6E42EF02F0404A412ACB
:1004680041BE40EF02F0415009E10A0E405CD8A0BD
:1004780040EF02F042EF02F0AAEF00F01F2806E179
:100488002028D8A44AEF02F04CEF02F04EEF02F019
:1004980099EF03F04D4A4E2A3D50D0EC12F0D89017
:1004A8000D360E36EA0E0D24D96E000E0E20DA6EC9
:1004B800DE2A000EDD221FC015F020C016F068EC01
:1004C80014F015C01DF016C01EF0F29A1D50000160
:1004D800B6271E50B723F28A19C029F01AC02AF08D
:1004E8001DC02FF01EC030F0460E2E6E20EE29F0F3
:1004F80000EE0DF0070EDBCFEBFFE806FCE296EC12
:1005080012F00001ABBF91EF02F0AB5108E1AA0570
:10051800D8A091EF02F093EF02F099EF03F0A05109
:100528004D5C1B6EA1514E581C6E1CBEA4EF02F010
:100538001C5008E11B04D8A0A4EF02F0A6EF02F0BB
:1005480099EF03F071EC13F00DC031F00EC032F0EA
:100558004D06D8A04E063D50D0EC12F0D8900D367E
:100568000E36EA0E0D24D96E000E0E20DA6EDE0667
:10057800000EDD5A410E3D18D8A4C5EF02F0C7EFB2
:1005880002F0EFEF02F03EC00DF03FC00EF0000E9B
:10059800106E060E0F6EA8EC14F0AE0E0D24D96E78
:1005A800010E0E20DA6E31C0DEFF32C0DDFF3EC024
:1005B8000DF03FC00EF0000E106E060E0F6EA8EC88
:1005C80014F0B20E0D24D96E010E0E20DA6E49C059
:1005D800DEFF4AC0DDFF420E3D18D8A4F6EF02F058
:1005E800F8EF02F020EF03F03EC00DF03FC00EF030
:1005F800000E106E060E0F6EA8EC14F0720E0D248D
:10060800D96E010E0E20DA6E31C0DEFF32C0DDFF7A
:100618003EC00DF03FC00EF0000E106E060E0F6EBD
:10062800A8EC14F0760E0D24D96E010E0E20DA6EA9
:1006380049C0DEFF4AC0DDFF430E3D18D8A427EFAE
:1006480003F029EF03F051EF03F03EC00DF03FC077
:100658000EF0000E106E060E0F6EA8EC14F0360E9B
:100668000D24D96E010E0E20DA6E31C0DEFF32C0C5
:10067800DDFF3EC00DF03FC00EF0000E106E060EFE
:100688000F6EA8EC14F03A0E0D24D96E010E0E2050
:10069800DA6E49C0DEFF4AC0DDFF440E3D18D8A41B
:1006A80058EF03F05AEF03F082EF03F03EC00DF06D
:1006B8003FC00EF0000E106E060E0F6EA8EC14F080
:1006C800FA0E0D24D96E000E0E20DA6E31C0DEFF50
:1006D80032C0DDFF3EC00DF03FC00EF0000E106EC0
:1006E800060E0F6EA8EC14F0FE0E0D24D96E000E47
:1006F8000E20DA6E49C0DEFF4AC0DDFF3DC037F08C
:1007080031C035F032C036F03EC038F03FC039F065
:10071800530E3A6E20EE35F000EE0DF0070EDBCFEB
:10072800EBFFE806FCE296EC12F01200000E1E6EDB
:10073800000E1D6E000E306E000E2F6E3BEF04F0A3
:100748002FC00DF030C00EF0000E106E070E0F6EA9
:10075800A8EC14F0800E0D24D96E070E0E20DA6E68
:100768001950DE1807E11A50DE18D8A4BEEF03F0BE
:10077800C0EF03F039EF04F02FC00DF030C00EF0D9
:10078800000E106E070E0F6EA8EC14F0850E0D24E7
:10079800D96E070E0E20DA6E010EDE6E000EDD6ECB
:1007A8002FC00DF030C00EF0000E106E070E0F6E49
:1007B800A8EC14F0840E0D24D96E070E0E20DA6E04
:1007C800DF50216E19C01FF01AC020F02FC00DF0A5
:1007D80030C00EF0000E106E070E0F6EA8EC14F06D
:1007E800820E0D24D96E070E0E20DA6EDECF1BF0B6
:1007F800DDCF1CF0010E1B24226E000E1C20236E80
:10080800530E246E20EE1FF000EE0DF0070EDBCF26
:10081800EBFFE806FCE296EC12F04D06D8A04E0677
:100828000001A007D8A0A1072FC00DF030C00EF01E
:10083800000E106E070E0F6EA8EC14F0840E0D2437
:10084800D96E070E0E20DA6EDF50D0EC12F0D89079
:100858000D360E36EA0E0D24D96E000E0E20DA6E15
:10086800DE06000EDD5A9EEF06F02F4A302A47506A
:100878002F5C3050800A1B6E4850800A1B58D8A045
:1008880048EF04F04AEF04F0A4EF03F00001A05190
:100898004D5C1B6EA1514E581C6E1B501C10D8A4E9
:1008A80058EF04F05AEF04F062EF04F019C00DF0AD
:1008B8001AC00EF0F1EC13F09EEF06F0000E326E47
:1008C800000E316E31C00DF032C00EF0000E106E09
:1008D800060E0F6EA8EC14F0B40E0D24D96E010E9E
:1008E8000E20DA6EDE2806E1DE28D8A47EEF04F0BA
:1008F80080EF04F0D1EF04F031C00DF032C00EF0FB
:10090800000E106E060E0F6EA8EC14F0B60E0D2435
:10091800D96E010E0E20DA6EDE2806E1DE28D8A494
:1009280098EF04F09AEF04F0D1EF04F031C00DF025
:1009380032C00EF0000E106E060E0F6EA8EC14F00A
:10094800B40E0D24D96E010E0E20DA6E19C0DEFF2A
:100958001AC0DDFF31C00DF032C00EF0000E106E6F
:10096800060E0F6EA8EC14F0B80E0D24D96E010E09
:100978000E20DA6E49C0DEFF4AC0DDFF010E3124C9
:100988000001A26F000E3220A36F000E1E6E010E32
:100998001D6E410E516EE1EF04F0314A322A32BE2B
:1009A800DFEF04F0325009E10A0E315CD8A0DFEF26
:1009B80004F0E1EF04F066EF04F01D501E10D8A417
:1009C800E8EF04F0EAEF04F069EF05F0000E346E8A
:1009D800000E336E33C00DF034C00EF0000E106EF2
:1009E800060E0F6EA8EC14F0780E0D24D96E010EC9
:1009F8000E20DA6EDE2806E1DE28D8A406EF05F020
:100A080008EF05F059EF05F033C00DF034C00EF0D3
:100A1800000E106E060E0F6EA8EC14F07A0E0D2460
:100A2800D96E010E0E20DA6EDE2806E1DE28D8A483
:100A380020EF05F022EF05F059EF05F033C00DF077
:100A480034C00EF0000E106E060E0F6EA8EC14F0F7
:100A5800780E0D24D96E010E0E20DA6E19C0DEFF55
:100A68001AC0DDFF33C00DF034C00EF0000E106E5A
:100A7800060E0F6EA8EC14F07C0E0D24D96E010E34
:100A88000E20DA6E49C0DEFF4AC0DDFF010E3324B6
:100A98000001A26F000E3420A36F000E1E6E010E1F
:100AA8001D6E420E516E69EF05F0334A342A34BE8A
:100AB80067EF05F0345009E10A0E335CD8A067EF00
:100AC80005F069EF05F0EEEF04F01D501E10D8A4F4
:100AD80070EF05F072EF05F0F1EF05F0000E366EDD
:100AE800000E356E35C00DF036C00EF0000E106EDB
:100AF800060E0F6EA8EC14F03C0E0D24D96E010EF4
:100B08000E20DA6EDE2806E1DE28D8A48EEF05F086
:100B180090EF05F0E1EF05F035C00DF036C00EF0AE
:100B2800000E106E060E0F6EA8EC14F03E0E0D248B
:100B3800D96E010E0E20DA6EDE2806E1DE28D8A472
:100B4800A8EF05F0AAEF05F0E1EF05F035C00DF0CC
:100B580036C00EF0000E106E060E0F6EA8EC14F0E4
:100B68003C0E0D24D96E010E0E20DA6E19C0DEFF80
:100B78001AC0DDFF35C00DF036C00EF0000E106E45
:100B8800060E0F6EA8EC14F0400E0D24D96E010E5F
:100B98000E20DA6E49C0DEFF4AC0DDFF010E3524A3
:100BA8000001A26F000E3620A36F000E1E6E010E0C
:100BB8001D6E430E516EF1EF05F0354A362A36BEEA
:100BC800EFEF05F0365009E10A0E355CD8A0EFEFDB
:100BD80005F0F1EF05F076EF05F01D501E10D8A4D2
:100BE800F8EF05F0FAEF05F075EF06F0000E386E35
:100BF800000E376E37C00DF038C00EF0000E106EC4
:100C0800060E0F6EA8EC14F0000E0D24D96E010E1E
:100C18000E20DA6EDE2806E1DE28D8A416EF06F0EC
:100C280018EF06F065EF06F037C00DF038C00EF08B
:100C3800000E106E060E0F6EA8EC14F0020E0D24B6
:100C4800D96E010E0E20DA6EDE2806E1DE28D8A461
:100C580030EF06F032EF06F065EF06F037C00DF022
:100C680038C00EF0000E106E060E0F6EA8EC14F0D1
:100C7800000E0D24D96E010E0E20DA6E19C0DEFFAB
:100C88001AC0DDFF37C00DF038C00EF0000E106E30
:100C9800060E0F6EA8EC14F0040E0D24D96E010E8A
:100CA8000E20DA6E49C0DEFF4AC0DDFF010E372490
:100CB8000001A26F000E3820A36F440E516E75EF2D
:100CC80006F0374A382A38BE73EF06F0385009E183
:100CD8000A0E375CD8A073EF06F075EF06F0FEEF4A
:100CE80005F051C029F019C027F01AC028F0A2C099
:100CF8002AF0A3C02BF0530E2C6E20EE27F000EE46
:100D08000DF0070EDBCFEBFFE806FCE296EC12F0E5
:100D18004D06D8A04E065150D0EC12F0D8900D36A2
:100D28000E36EA0E0D24D96E000E0E20DA6EDE069F
:100D3800000EDD5A1200000E226E000E216E0BEF1F
:100D480009F01BC00DF01CC00EF0000E106E060E50
:100D58000F6EA8EC14F0AE0E0D24D96E010E0E2005
:100D6800DA6EDE2806E1DE28D8A4BDEF06F0BFEF74
:100D780006F028EF09F01BC00DF01CC00EF0000EA5
:100D8800106E060E0F6EA8EC14F0B00E0D24D96E7E
:100D9800010E0E20DA6EDE2806E1DE28D8A4D7EF91
:100DA80006F0D9EF06F028EF09F01BC00DF01CC0C3
:100DB8000EF0000E106E060E0F6EA8EC14F0B00EBA
:100DC8000D24D96E010E0E20DA6E19C0DEFF1AC08E
:100DD800DDFF000E226E010E216E47C00DF048C0E7
:100DE8000EF0000E106E070E0F6EA8EC14F0800EB9
:100DF8000D24D96E070E0E20DA6E19C0DEFF1AC058
:100E0800DDFFFF0E1D6EFF0E1E6E1BC01FF01CC007
:100E180020F01D501F261E50202247C00DF048C04C
:100E28000EF0000E106E070E0F6EA8EC14F0820E76
:100E38000D24D96E070E0E20DA6E1FC0DEFF20C00B
:100E4800DDFF47C00DF048C00EF0000E106E070E13
:100E58000F6EA8EC14F0840E0D24D96E070E0E2028
:100E6800DA6E410EDF6E47C00DF048C00EF0000E7E
:100E7800106E070E0F6EA8EC14F0850E0D24D96EB7
:100E8800070E0E20DA6E000EDE6E000EDD6E474A8B
:100E9800482A28EF09F01BC00DF01CC00EF0000E08
:100EA800106E060E0F6EA8EC14F0720E0D24D96E9B
:100EB800010E0E20DA6EDE2806E1DE28D8A467EFE0
:100EC80007F069EF07F028EF09F01BC00DF01CC010
:100ED8000EF0000E106E060E0F6EA8EC14F0740ED5
:100EE8000D24D96E010E0E20DA6EDE2806E1DE280A
:100EF800D8A481EF07F083EF07F028EF09F01BC0B3
:100F08000DF01CC00EF0000E106E060E0F6EA8EC51
:100F180014F0740E0D24D96E010E0E20DA6E19C06D
:100F2800DEFF1AC0DDFF000E226E010E216E47C0E3
:100F38000DF048C00EF0000E106E070E0F6EA8ECF4
:100F480014F0800E0D24D96E070E0E20DA6E19C02B
:100F5800DEFF1AC0DDFFFF0E1D6EFF0E1E6E1BC0EA
:100F68001FF01CC020F01D501F261E50202247C015
:100F78000DF048C00EF0000E106E070E0F6EA8ECB4
:100F880014F0820E0D24D96E070E0E20DA6E1FC0E3
:100F9800DEFF20C0DDFF47C00DF048C00EF0000E98
:100FA800106E070E0F6EA8EC14F0840E0D24D96E87
:100FB800070E0E20DA6E420EDF6E37EF07F01BC009
:100FC8000DF01CC00EF0000E106E060E0F6EA8EC91
:100FD80014F0360E0D24D96E010E0E20DA6EDE28BE
:100FE80006E1DE28D8A4FBEF07F0FDEF07F028EFB5
:100FF80009F01BC00DF01CC00EF0000E106E060E9E
:101008000F6EA8EC14F0380E0D24D96E010E0E20C8
:10101800DA6EDE2806E1DE28D8A415EF08F017EF0F
:1010280008F028EF09F01BC00DF01CC00EF0000EF0
:10103800106E060E0F6EA8EC14F0380E0D24D96E43
:10104800010E0E20DA6E19C0DEFF1AC0DDFF000E99
:10105800226E010E216E47C00DF048C00EF0000E42
:10106800106E070E0F6EA8EC14F0800E0D24D96ECA
:10107800070E0E20DA6E19C0DEFF1AC0DDFFFF0E64
:101088001D6EFF0E1E6E1BC01FF01CC020F01D50F1
:101098001F261E50202247C00DF048C00EF0000E3B
:1010A800106E070E0F6EA8EC14F0820E0D24D96E88
:1010B800070E0E20DA6E1FC0DEFF20C0DDFF47C01E
:1010C8000DF048C00EF0000E106E070E0F6EA8EC63
:1010D80014F0840E0D24D96E070E0E20DA6E430E1E
:1010E800DF6E37EF07F01BC00DF01CC00EF0000ECE
:1010F800106E060E0F6EA8EC14F0FA0E0D24D96EC1
:10110800000E0E20DA6EDE2806E1DE28D8A48FEF66
:1011180008F091EF08F028EF09F01BC00DF01CC093
:101128000EF0000E106E060E0F6EA8EC14F0FC0EFA
:101138000D24D96E000E0E20DA6EDE2806E1DE28B8
:10114800D8A4A9EF08F0ABEF08F028EF09F01BC00E
:101158000DF01CC00EF0000E106E060E0F6EA8ECFF
:1011680014F0FC0E0D24D96E000E0E20DA6E19C094
:10117800DEFF1AC0DDFF000E226E010E216E47C091
:101188000DF048C00EF0000E106E070E0F6EA8ECA2
:1011980014F0800E0D24D96E070E0E20DA6E19C0D9
:1011A800DEFF1AC0DDFFFF0E1D6EFF0E1E6E1BC098
:1011B8001FF01CC020F01D501F261E50202247C0C3
:1011C8000DF048C00EF0000E106E070E0F6EA8EC62
:1011D80014F0820E0D24D96E070E0E20DA6E1FC091
:1011E800DEFF20C0DDFF47C00DF048C00EF0000E46
:1011F800106E070E0F6EA8EC14F0840E0D24D96E35
:10120800070E0E20DA6E440EDF6E37EF07F05150EE
:101218001D6E1E6A1E50000AD8B415EF09F028EF9B
:1012280009F01D50410AD8B4A5EF06F0030AD8B456
:101238004FEF07F0010AD8B4E3EF07F0070AD8B474
:1012480077EF08F028EF09F021502210D8B42FEFDB
:1012580009F031EF09F040EF09F0000E2A6E320E66
:10126800296EF29A320E0001B627000EB723F28AD1
:10127800A04BA12B44EF09F0000E2A6E000E296E38
:1012880019C023F01AC024F0520E286E20EE23F065
:1012980000EE0DF0070EDBCFEBFFE806FCE296EC64
:1012A80012F012000001A5BF62EF09F0A55108E194
:1012B800A405D8A062EF09F064EF09F06FEF09F018
:1012C800CFEC10F020EE29F0070EEBCFDBFFE8069D
:1012D800FCE271EF09F0000ECD6F530E2E18D8A462
:1012E80078EF09F07AEF09F07FEF09F0010E0001BD
:1012F800CD6FD6EF0AF0460E2E18D8A486EF09F067
:1013080088EF09F08DEF09F0020E0001CD6FD6EFDE
:101318000AF0520E2E18D8A494EF09F096EF09F0AF
:101328009BEF09F0030E0001CD6FD6EF0AF0D6EF60
:101338000AF0240E746F450E756F4D0E766F500EC1
:10134800776F4DC00DF04EC00EF0000E106E0A0EF5
:101358000F6EBDEC0FF00D50300F0001786F4DC0CF
:1013680015F04EC016F0000E186E0A0E176E77ECC8
:1013780010F01550300F0001796F230E7A6F070EA9
:10138800CA6FF4EF0AF0240E746F530E756F500E87
:10139800766F430E776F29C00DF02AC00EF0000E4D
:1013A800106E640E0F6EBDEC0FF00D50300F000183
:1013B800786F000E106E0A0E0F6E29C00DF02AC04D
:1013C8000EF0BDEC0FF00DC015F00EC016F0000EBB
:1013D800186E0A0E176E77EC10F01550300F0001DA
:1013E800796F29C015F02AC016F0000E186E0A0E83
:1013F800176E77EC10F01550300F00017A6F2BC084
:101408007BF02CC00DF02DC00EF0000E106E0A0EF1
:101418000F6EBDEC0FF00D50300F00017C6F2CC02B
:1014280015F02DC016F0000E186E0A0E176E77EC28
:1014380010F01550300F00017D6F230E7E6F0B0EDC
:10144800CA6FF4EF0AF0240E746F460E756F450EDE
:10145800766F450E776F29C01BF02AC01CF0000E6E
:101468001E6E640E1D6E34EC14F01B500001786F74
:1014780029C01BF02AC01CF0000E1E6E0A0E1D6E3D
:1014880034EC14F01B500001796F29C01BF02AC0FE
:101498001CF0000E1E6E010E1D6E34EC14F01B5075
:1014A80000017A6F2FC01BF030C01CF0000E1E6EBA
:1014B800640E1D6E34EC14F01B5000017B6F2FC0BE
:1014C8001BF030C01CF0000E1E6E0A0E1D6E34ECB0
:1014D80014F01B5000017C6F2FC01BF030C01CF0B3
:1014E800000E1E6E010E1D6E34EC14F01B50000130
:1014F8007D6F230E7E6F0B0ECA6FF4EF0AF0240E79
:10150800746F520E756F450E766F530E776F29C044
:101518001BF02AC01CF0000E1E6E640E1D6E34EC0B
:1015280014F01B500001786F29C01BF02AC01CF072
:10153800000E1E6E0A0E1D6E34EC14F01B500001D6
:10154800796F29C01BF02AC01CF0000E1E6E010E18
:101558001D6E34EC14F01B5000017A6F2FC01BF085
:1015680030C01CF0000E1E6E0A0E1D6E34EC14F016
:101578001B5000017B6F2FC01BF030C01CF0000E09
:101588001E6E010E1D6E34EC14F01B5000017C6FB2
:10159800230E7D6F0A0ECA6FF4EF0AF0000ECA6FB1
:1015A800F4EF0AF00001CD51276E286A2850000A8E
:1015B800D8B4E1EF0AF0D2EF0AF02750000AD8B405
:1015C8009DEF09F0010AD8B4C7EF09F0030AD8B4AF
:1015D80027EF0AF0010AD8B483EF0AF0D2EF0AF035
:1015E8006EEC11F01200F2EC0CF07FEC14F0BBEC96
:1015F80014F0C8EC14F0D5EC14F043EC0EF00AEC3F
:101608000CF04F505010D8A40CEF0BF00EEF0BF06D
:1016180010EF0BF018EC14F04F505010D8A417EF3F
:101628000BF019EF0BF040EF0BF00001C1BF26EFF4
:101638000BF0C15109E1140EC05DD8A026EF0BF0E4
:1016480028EF0BF040EF0BF0A5BF33EF0BF0A551DF
:1016580008E1A405D8A033EF0BF035EF0BF039EF14
:101668000BF056EC09F03BEF0BF09EEC13F0000E7C
:101678000001C16F000EC06F0001FC51FD11D8B40C
:1016880048EF0BF04AEF0BF04FEF0BF0000EFD6F39
:10169800000EFC6FC282B251B311D8B456EF0BF0F2
:1016A80058EF0BF0C9EF0BF0000EB36F000EB26FDE
:1016B800C350C4CFF6F10101F76BF6C1F7F1F66B31
:1016C800F611FA6FF751FB6FFB05D8B06EEF0BF010
:1016D80070EF0BF079EF0BF0410ED0EC12F00DC06B
:1016E800B4F00EC0B5F0C9EF0BF0FB05D8A07FEF42
:1016F8000BF081EF0BF093EF0BF0020EFB5DD8B00F
:1017080088EF0BF08AEF0BF093EF0BF0420ED0EC62
:1017180012F00DC0B4F00EC0B5F0C9EF0BF0020E18
:10172800FB5DD8A09AEF0BF09CEF0BF0AEEF0BF03F
:10173800030EFB5DD8B0A3EF0BF0A5EF0BF0AEEFF7
:101748000BF0430ED0EC12F00DC0B4F00EC0B5F0A3
:10175800C9EF0BF0030EFB5DD8A0B5EF0BF0B7EFA8
:101768000BF0C9EF0BF0040EFB5DD8B0BEEF0BF029
:10177800C0EF0BF0C9EF0BF0440ED0EC12F00DC027
:10178800B4F00EC0B5F0C9EF0BF04F505010D8A40C
:10179800D0EF0BF0D2EF0BF001EF0BF00001BA0520
:1017A800BB11D8A4DAEF0BF0DCEF0BF001EF0BF074
:1017B800000EBB6F000EBA6FFA51FB11D8B4E7EFF9
:1017C8000BF0E9EF0BF0F1EF0BF0B6C01BF0B7C070
:1017D8001CF0CDEC0EF004EF0CF0D890B435D96EB7
:1017E800B535DA6EEA0ED926000EDA22DECFF8F128
:1017F800DDCFF9F1F8C11BF0F9C11CF0CDEC0EF00A
:1018080052EC12F001EF0BF007EF00F04B50D8A4A8
:1018180010EF0CF012EF0CF014EF0CF0F1EF0CF0ED
:101828004F505010D8B41BEF0CF01DEF0CF038EFF0
:101838000CF0470E00018819D8A425EF0CF027EF0B
:101848000CF038EF0CF04F0E8919D8A42EEF0CF0DD
:1018580030EF0CF038EF0CF0000E506E000E4F6EAB
:10186800000E4B6EF1EF0CF0450E00018819D8A45C
:1018780040EF0CF042EF0CF05CEF0CF04E0E8919C3
:10188800D8A449EF0CF04BEF0CF05CEF0CF0440ED1
:101898008A19D8A452EF0CF054EF0CF05CEF0CF05E
:1018A800000EC76F010EC66F000E4B6EF1EF0CF005
:1018B800500E8819D8A463EF0CF065EF0CF08BEF8D
:1018C8000CF0520E8919D8A46CEF0CF06EEF0CF0E6
:1018D8008BEF0CF04B0E8A19D8A475EF0CF077EF4C
:1018E8000CF08BEF0CF08CC013F08DC014F08B5102
:1018F80009EC13F0C4C0F0F1C5C0F1F1FF0E01010D
:10190800F36FF269700E1FEC10F0EFEF0CF0450E5C
:101918008819D8A492EF0CF094EF0CF0BAEF0CF001
:10192800580E8919D8A49BEF0CF09DEF0CF0BAEF74
:101938000CF0540E8A19D8A4A4EF0CF0A6EF0CF002
:10194800BAEF0CF08CC013F08DC014F08B5109EC79
:1019580013F0C4C0F0F1C5C0F1F1FF0E0101F36F3F
:10196800F269650E1FEC10F0EFEF0CF0530E8819BA
:10197800D8A4C1EF0CF0C3EF0CF0EFEF0CF0550E4C
:101988008919D8A4CAEF0CF0CCEF0CF0EFEF0CF0EB
:10199800420E8A19D8A4D3EF0CF0D5EF0CF0EFEF74
:1019A8000CF08CC013F08DC014F08B5109EC13F0BF
:1019B8008EC051F090C013F000018F51CAEC13F0A3
:1019C800C4C0F0F1C5C0F1F1C2C0F2F1C3C0F3F177
:1019D800730E1FEC10F0000E4B6E1200000E146E0A
:1019E800000E136E13C00DF014C00EF0000E106E32
:1019F800060E0F6EA8EC14F0B40E0D24D96E010E6D
:101A08000E20DA6EFF0EDE6EFF0EDD6E13C00DF0D7
:101A180014C00EF0000E106E060E0F6EA8EC14F037
:101A2800B60E0D24D96E010E0E20DA6EFF0EDE6E94
:101A3800FF0EDD6E13C00DF014C00EF0000E106E18
:101A4800060E0F6EA8EC14F0780E0D24D96E010E58
:101A58000E20DA6EFF0EDE6EFF0EDD6E13C00DF087
:101A680014C00EF0000E106E060E0F6EA8EC14F0E7
:101A78007A0E0D24D96E010E0E20DA6EFF0EDE6E80
:101A8800FF0EDD6E13C00DF014C00EF0000E106EC8
:101A9800060E0F6EA8EC14F03C0E0D24D96E010E44
:101AA8000E20DA6EFF0EDE6EFF0EDD6E13C00DF037
:101AB80014C00EF0000E106E060E0F6EA8EC14F097
:101AC8003E0E0D24D96E010E0E20DA6EFF0EDE6E6C
:101AD800FF0EDD6E13C00DF014C00EF0000E106E78
:101AE800060E0F6EA8EC14F0000E0D24D96E010E30
:101AF8000E20DA6EFF0EDE6EFF0EDD6E13C00DF0E7
:101B080014C00EF0000E106E060E0F6EA8EC14F046
:101B1800020E0D24D96E010E0E20DA6EFF0EDE6E57
:101B2800FF0EDD6E134A142A14BEA4EF0DF01450F4
:101B380009E10A0E135CD8A0A4EF0DF0A6EF0DF092
:101B4800F6EF0CF012000600E1CF08F0E2CF09F042
:101B5800D9CF0AF0DACF0BF09EAAB5EF0DF0B7EFA8
:101B68000DF0B9EF0DF0DCEC14F09EA8BEEF0DF00F
:101B7800C0EF0DF0C2EF0DF094EC14F09EACC7EF7F
:101B88000DF0C9EF0DF0CBEF0DF0E3EC14F0F2A47B
:101B9800D0EF0DF0D2EF0DF009EF0EF0F2943C0EFD
:101BA800D76ED00ED66E4F505010D8A4DEEF0DF081
:101BB800E0EF0DF0E5EF0DF0494A4A2A0001C04B6D
:101BC800C12B640E0001FE19FF11D8A4EEEF0DF031
:101BD800F0EF0DF0FAEF0DF0000EFF6F010EFE6F43
:101BE800000EFD6F010EFC6FFCEF0DF0FE4BFF2B9E
:101BF8004F505010D8A403EF0EF005EF0EF009EF88
:101C08000EF0000EBB6F010EBA6FF2A00EEF0EF0D1
:101C180010EF0EF039EF0EF0F29081CF0CF00CA817
:101C280018EF0EF01AEF0EF036EF0EF05250D8A45F
:101C380020EF0EF022EF0EF036EF0EF00001FA5111
:101C4800FB11D8B42AEF0EF02CEF0EF032EF0EF0A5
:101C5800000EFB6F000EFA6F36EF0EF0000EFB6FF2
:101C6800010EFA6F0C50100B526E0BC0DAFF0AC04F
:101C7800D9FF09C0E2FF08C0E1FF53921100F0EC60
:101C880014F0000E41EC13F00009D8A44EEF0EF04A
:101C980050EF0EF0CAEF0EF0B0EF0EF0000E51EC60
:101CA8000FF00F6E240E0F18D8A45DEF0EF05FEF43
:101CB8000EF0CAEF0EF0010E0001CC6F000E4C6E54
:101CC800CAEF0EF0000E51EC0FF00F6E230E0F1836
:101CD800D8A471EF0EF073EF0EF07AEF0EF0020E4B
:101CE8000001CC6F010E4B6ECAEF0EF0240E0F18D8
:101CF800D8B481EF0EF083EF0EF094EF0EF04C5055
:101D08000D6E0E6A010E0D26000E0E22140E0D1811
:101D18000E10D8A492EF0EF094EF0EF098EF0EF09C
:101D2800000E4C6ECAEF0EF0880E4C24D96EDA6A9B
:101D3800000EDA220FC0DFFF4C2ACAEF0EF04B501C
:101D4800D8A4A9EF0EF0ABEF0EF0CAEF0EF0000E1C
:101D5800CC6FCB2BCAEF0EF00001CC510D6E0E6A82
:101D68000E50000AD8B4BBEF0EF0CAEF0EF00D50BB
:101D7800000AD8B452EF0EF0010AD8B466EF0EF09C
:101D8800030AD8B4A3EF0EF0CAEF0EF0EDEC14F08E
:101D9800120020EECEF012EEA0F0130EDBCFE3FF20
:101DA800E806FCE222EEB4F0130EDE6AE806FDE275
:101DB800000E0201C96F000EC86F0BEF0FF01BC0B9
:101DC80015F01CC016F0000E186E0A0E176E77EC90
:101DD80010F0D8900201C835D96EC935DA6EB40E44
:101DE800D926020EDA2215C0DEFF16C0DDFFC84B69
:101DF800C92B1BC00DF01CC00EF0000E106E0A0E91
:101E08000F6EBDEC0FF00DC01BF00EC01CF01CBE19
:101E180018EF0FF01C5006E11B04D8B016EF0FF0B6
:101E280018EF0FF0E3EF0EF0000E0201C96F000E7D
:101E3800C86FD890C835D96EC935DA6EB40ED926B0
:101E4800020EDA22DECF1DF0DDCF1EF0D8901D364F
:101E58001E36A00E1D24D96E020E1E20DA6ED890F2
:101E6800C835E16EC935E26EF20EE126000EE222B7
:101E7800DECFE6FFDDCFE5FFC84BC92BC9BF4EEF6C
:101E88000FF0C95109E1040EC85DD8A04EEF0FF05C
:101E980050EF0FF01DEF0FF01200076E075041ECE6
:101EA80013F00009D8B45BEF0FF05DEF0FF060EFAF
:101EB8000FF0000EBCEF0FF00750D8A466EF0FF03C
:101EC80068EF0FF07BEF0FF0430E0724D96EDA6A44
:101ED800000EDA22DF50046E056A000E0424D96E63
:101EE800030E0520DA6EDF50066E9DEF0FF0430EED
:101EF8000724D96EDA6A000EDA22DF50046E056A0A
:101F0800000E0424D96E020E0520DA6EDF50066E2C
:101F1800430E0724D96EDA6A000EDA22DF50046E07
:101F2800056A000E0424D96E020E0520DA6E000E32
:101F3800DF6E430E0724D96EDA6A000EDA22DF2A32
:101F4800430E0724D96EDA6A000EDA22800EDE18F4
:101F5800D8A4B1EF0FF0B3EF0FF0BBEF0FF0430EC3
:101F68000724D96EDA6A000EDA22000EDF6E0650F8
:101F78001200000E126E10BEC6EF0FF0C4EF0FF085
:101F8800CCEF0FF00F6C101ED8B0102A010E126E95
:101F98000EBED3EF0FF0D1EF0FF0D9EF0FF00D6CAD
:101FA8000E1ED8B00E2A010E121A000E146E000E64
:101FB800136E0F501010D8B4E4EF0FF0E6EF0FF0E7
:101FC8000EEF10F0010E116EEEEF0FF0D8900F36F5
:101FD8001036112A10AEF3EF0FF0F5EF0FF0EAEF1D
:101FE8000FF0D890133614360F500D5C10500E5861
:101FF800D8A001EF10F003EF10F008EF10F00F5029
:102008000D5E10500E5A1380D89010320F32112ED8
:10201800F5EF0FF01250D8B414EF10F016EF10F0DF
:102028001AEF10F0136C141ED8B0142A13C00DF058
:1020380014C00EF01200426E700E4218D8A427EF9A
:1020480010F029EF10F02FEF10F0F0C119F0F1C1E6
:102058001AF09AEC03F0650E4218D8A436EF10F087
:1020680038EF10F04CEF10F04EBE46EF10F04E5027
:1020780007E1290E4D5CD8B044EF10F046EF10F0A0
:102088004CEF10F0F0C119F0F1C11AF009EC00F0B2
:10209800730E4218D8A453EF10F055EF10F076EFF6
:1020A80010F00001A0514D5C0101F46F0001A15135
:1020B8004E580101F56FF5BF6AEF10F0F55108E1D0
:1020C800F405D8A06AEF10F06CEF10F076EF10F07E
:1020D800F0C119F0F1C11AF0F2C11BF0F3C11CF004
:1020E8009FEC06F01200000E1A6E16BE80EF10F07C
:1020F8007EEF10F086EF10F0156C161ED8B0162A79
:10210800010E1A6E18BE8DEF10F08BEF10F091EFE4
:1021180010F0176C181ED8B0182A17501810D8B419
:1021280098EF10F09AEF10F0BEEF10F0010E196E54
:10213800A2EF10F0D89017361836192A18AEA7EF64
:1021480010F0A9EF10F09EEF10F01750155C185022
:102158001658D8A0B2EF10F0B4EF10F0B8EF10F0A6
:102168001750155E1850165AD89018321732192E73
:10217800A9EF10F01A50D8B4C4EF10F0C6EF10F061
:10218800CAEF10F0156C161ED8B0162A15C015F037
:1021980016C016F0120020EEE2F010EE17F0070E4F
:1021A800DBCFE3FFE806FCE20001A651A81907E12E
:1021B800A751A919D8A4E3EF10F0E5EF10F0F0EF5C
:1021C80010F020EE17F000EE0DF0070EDBCFEBFF5E
:1021D800E806FCE220EF11F0A8C015F0A9C016F03F
:1021E800D89015361636D89015361636D890153636
:1021F8001636800E1524D96E030E1620DA6E10EEF0
:102208001FF0070EDBCFE3FFE806FCE2010EA8256E
:10221800156E000EA921166E7F0E1514A86FA96BF6
:10222800A407D8A0A50720EE1FF000EE0DF0070EBA
:10223800DBCFEBFFE806FCE212009E0EF66E280EDE
:10224800F76E000EF86E00EECEF010EE32F00900D8
:10225800F5CFEEFFE550E150FAE1D40EF66E290E07
:10226800F76E000EF86E00EE4DF010EE06F0090065
:10227800F5CFEEFFE550E150FAE103EE80F015EE00
:1022880018F0EE6AE550E150FCE1E250FAE103EEA5
:1022980000F0800EEE6AE806FDE102EE00F0A00E06
:1022A800EE6AE806FDE101EE00F0F00EEE6AE806DF
:1022B800FDE100EE60F06E0EEE6AE806FDE100EE6C
:1022C80043F00A0EEE6AE806FDE1539053920001CE
:1022D800F7EF0AF0000E156E000E146E85EF11F080
:1022E800F0EC14F0010E0D6E740E1424D96E000E6D
:1022F8001520DA6EDF50BAEC11F0EDEC14F0144A48
:10230800152A0001CA51116E126A1150145C155039
:10231800800A136E1250800A1358D8A096EF11F055
:1023280098EF11F074EF11F0010E0D6E230EBAEC58
:1023380011F0000E176E000E166E740E1624D96E6C
:10234800000E1720DA6E000EDF6E164A172A17BE27
:10235800B7EF11F0175009E1140E165CD8A0B7EFCB
:1023680011F0B9EF11F0A1EF11F01200106E0D503D
:10237800D8A4C1EF11F0C3EF11F0D6EF11F0450E5C
:102388000D24D96EDA6A000EDA22DF500E6E0F6A5B
:10239800000E0E24D96E030E0F20DA6E10C0DFFF78
:1023A800E7EF11F0450E0D24D96EDA6A000EDA2235
:1023B800DF500E6E0F6A000E0E24D96E020E0F202B
:1023C800DA6E10C0DFFF450E0D24D96EDA6A000EF2
:1023D800DA22DF2A450E0D24D96EDA6A000EDA22D7
:1023E800800EDE18D8A4FBEF11F0FDEF11F005EF19
:1023F80012F0450E0D24D96EDA6A000EDA22000EAC
:10240800DF6E1200046E0150D8A40DEF12F00FEF2A
:1024180012F022EF12F0450E0124D96EDA6A000E8E
:10242800DA22DF50026E036A000E0224D96E030E10
:102438000320DA6E04C0DFFF33EF12F0450E0124EB
:10244800D96EDA6A000EDA22DF50026E036A000ED5
:102458000224D96E020E0320DA6E04C0DFFF450E97
:102468000124D96EDA6A000EDA22DF2A450E012429
:10247800D96EDA6A000EDA22800EDE18D8A447EF89
:1024880012F049EF12F051EF12F0450E0124D96E07
:10249800DA6A000EDA22000EDF6E12006CEF12F01C
:1024A800080E906EF2C091FF8AEF12F0040E906E43
:1024B800F4C091FF8AEF12F0020E906EF6C091FF01
:1024C8008AEF12F0010E906EF8C091FF8AEF12F0B9
:1024D800B8C00DF0B9C00EF00E50000AD8B477EFAE
:1024E80012F08AEF12F00D50000AD8B454EF12F02F
:1024F800010AD8B45AEF12F0030AD8B460EF12F008
:10250800010AD8B466EF12F08AEF12F0010E00014A
:10251800B8250D6E000EB9210E6E030E0D14B86F9E
:10252800B96B1200010E0001A625156E000EA72139
:10253800166E7F0E1514176E186AA851171807E142
:10254800A9511818D8A4ABEF12F0ADEF12F0AFEF05
:1025580012F0CFEF12F020EE0DF0A6C015F0A7C0D4
:1025680016F0D89015361636D89015361636D890F7
:1025780015361636800E1524E16E030E1620E26E0F
:10258800070EDBCFE3FFE806FCE217C0A6F018C091
:10259800A7F0A44BA52B1200116EEBEF12F0000E62
:1025A8000E6E000E0D6E08EF13F0000E0E6E010E8B
:1025B8000D6E08EF13F0000E0E6E020E0D6E08EF92
:1025C80013F0000E0E6E030E0D6E08EF13F011508F
:1025D8000F6E106A1050000AD8B4F5EF12F008EF29
:1025E80013F00F50410AD8B4D3EF12F0030AD8B44D
:1025F800D9EF12F0010AD8B4DFEF12F0070AD8B405
:10260800E5EF12F008EF13F01200196E000E00014A
:10261800C56F000EC46FD00E19240D6E0E6AFF0E22
:102628000E22000E106E640E0F6EA8EC14F00D5002
:102638000001C4270E50C523D00E13240D6E0E6A58
:10264800FF0E0E22000E106E0A0E0F6EA8EC14F08C
:102658000D500001C4270E50C523D00E156EFF0E75
:10266800166E1450176E186A155017261650182231
:102678001750C4271850C5231200036E450E0324B3
:10268800D96EDA6A000EDA22DF50016E01500001BD
:102698009E6F9F6B430E0324D96EDA6A000EDA220E
:1026A800DF50016E01509C6F9D6B430E0324D96E61
:1026B800DA6A000EDA22450E0324E16EE26A000EA1
:1026C800E222DE50E618D8B46CEF13F06FEF13F087
:1026D800010E70EF13F0000E12000001AA51AB11A9
:1026E800D8A479EF13F07BEF13F07FEF13F00D68A8
:1026F8000E689DEF13F0D890AE35D96EAF35DA6E0F
:10270800800ED926020EDA22DECF11F0DDCF12F0CC
:10271800010EAE250F6E000EAF21106E0F0E0F14B6
:10272800AE6FAF6BAA07D8A0AB0711C00DF012C0EF
:102738000EF01200240E0001746F450E756F4D0ED9
:10274800766F500E776F4DC00DF04EC00EF0000E34
:10275800106E0A0E0F6EBDEC0FF00D50300F000119
:10276800786F4DC015F04EC016F0000E186E0A0EA8
:10277800176E77EC10F01550300F0001796F230EAB
:102788007A6F070ECA6F6EEC11F01200186E000E09
:102798000001C36F000EC26FD00E18240D6E0E6AB2
:1027A800FF0E0E22000E106E0A0E0F6EA8EC14F02B
:1027B8000D500001C2270E50C323D00E146EFF0E19
:1027C800156E1350166E176A1450162615501722D8
:1027D8001650C2271750C3231200100E0001AA1961
:1027E800AB11D8A4FAEF13F0FCEF13F0FEEF13F0DF
:1027F80017EF14F0D890AC35D96EAD35DA6E800E7F
:10280800D926020EDA220DC0DEFF0EC0DDFF010E52
:10281800AC250F6E000EAD21106E0F0E0F14AC6FAD
:10282800AD6BAA4BAB2B1200F0EC14F0010E41EC8F
:1028380013F00009D8A423EF14F025EF14F031EFBA
:1028480014F0ACBA2AEF14F02CEF14F031EF14F0B6
:10285800AC8A010E51EC0FF0AD6EEDEC14F01200E5
:102868001DC00FF01EC010F01BC00DF01CC00EF0F4
:10287800BDEC0FF00DC015F00EC016F0000E186E6E
:102888000A0E176E77EC10F0300E15241B6E000E32
:1028980016201C6E12003F0006005B004F00660009
:1028A8006D007D0007007F006F00000000000058E9
:1028B80000000A000A000A000A003F003F003F002B
:1028C8003F00010001000A001550495C0D6E1650CA
:1028D8004A580E6E000E106E320E0F6EBDEC0FF0E1
:1028E8000DC017F00EC018F0010E1724156E000E5B
:1028F8001820166E1200000ED56ED58ED5863C0EA9
:10290800D76ED00ED66ED09E9D8A9D989D8C000E57
:10291800F26EF28AF28CF28EF286F29081501200F8
:102928009E98010E41EC13F0E806D8A49EEF14F02F
:10293800A0EF14F0A3EF14F0AC9AA7EF14F0010E77
:1029480051EC0FF0AD6E12000D500F02F3CF11F0E5
:10295800F4CF12F00D501002F35012260E500F0251
:10296800F350122611C00DF012C00EF01200AC9CEC
:10297800AC9AAC98AC94AB8EAB9CAB887E86000EC0
:102988007F6E150EAF6E1200F00E936E000E9A6EEB
:10299800100E996E000E8A6E080E906E000E916EE3
:1029A8001200310EC26E020EC16EAA0EC06E120067
:1029B8009E9A000E016EAE5006EC12F012009E9C1C
:1029C800000E0001B36F010EB26F12002800010063
:0E29D80041109D8A9D8812009D9A9D981200C4
:020000040020DA
:08000000FFFFFFFFFFFFFFFF00
:020000040030CA
:0E000000FF06191EF38301FFFFC0FFE0FF4063
:00000001FF
